:100000006F002062130000001300000013000000C6
:100010001300000013000000130000001300000094
:100020001300000013000000130000001300000084
:08003000130000007300100032
:100038000000000000000000A8020000AC02000060
:10004800000000006805000000000000000000003B
:100058006A0500006C0500000000000000000000B8
:100068006E050000000000007005000000000000A0
:100078007205000074050000760500007805000090
:100088007A0500007C0500003A1A0000781A000082
:10009800A81A0000D81A0000081B000088050000F4
:1000A8008A0500008C0500008E0500009005000000
:1000B80092050000940500009605000098050000D0
:1000C8009A0500009C0500009E0500004E1B0000DC
:1000D800A2050000A4050000A6050000A805000070
:1000E800AA050000AC050000AE050000B005000040
:1000F800B2050000B4050000B6050000B805000010
:10010800BA050000BC050000BE050000A8270000D5
:10011800CA1B0000C4050000C6050000C805000091
:10012800CA050000CC050000CE050000D00500007F
:10013800D2050000D4050000D6050000D80500004F
:10014800DA050000DC050000DE0500006427000079
:10015800E2050000E4050000E6050000E8050000EF
:10016800EA050000EC050000EE050000F0050000BF
:10017800F2050000F4050000F6050000F80500008F
:10018800FA050000FC050000FE050000000600005E
:10019800020600000406000006060000080600002B
:1001A8000A0600000C0600000E06000010060000FB
:1001B80012060000140600001606000018060000CB
:1001C8001A0600001C0600001E060000200600009B
:1001D8000000000000000000000000000000000017
:1001E8000000000000000000000000000000000007
:0801F8000000000000000000FF
:100200003D432A876373C3029377F700BDEFADE5E3
:10021000937606FF3D8ABA960CC34CC30CC74CC7F5
:100220004107E36BD7FE11E28280B306C3408A0622
:100230009702000096966780A6002307B700A306E2
:10024000B7002306B700A305B7002305B700A30432
:10025000B7002304B700A303B7002303B700A3022A
:10026000B7002302B700A301B7002301B700A30022
:10027000B7002300B700828093F5F50F93968500B1
:10028000D58D93960501D58D61B79396270097027A
:10029000000096968682E78086FA9680C1171D8FA9
:1002A0003E96E374C3F8A5B77300203001A07971BE
:1002B000094506D622D426D24AD056CA5AC84ECEAE
:1002C00052CC5EC662C48925EF00D03C716513052F
:1002D0000520EF00B041B707002083A54708374548
:1002E00000001305450BEF20A061EF10104313052C
:1002F000800237090020EF10902D5684EF00F07136
:10030000EF00905B13090901EF104061054B83C7B3
:1003100091856393071483C781858DC7C16509657E
:10032000FD151305358EEF10302E0145EF10303AD4
:10033000EF00B06E238C0184A384018623840186A0
:10034000A385018603C7C18619C703C5918123868A
:100350000186EF10E00E83C771869946B387D702F6
:1003600003C76186CA97BA9703C70700B70700207B
:1003700003C50708A38CE180938B07086304A700DB
:10038000EF10E00803C59181EF10600083C79181F1
:100390002380FB0083C7918695CFEF208055EF1017
:1003A000E02283C7B186B1C7374500401305054039
:1003B000EF00B02823AEA18603C781829387818294
:1003C0001DC729473365E5020547631DE50023A0E6
:1003D000A18821A883C78186E9D7EF20E04AEF10E2
:1003E000402DC1B70947E304E5FE23800700EF1065
:1003F000C03883CBA1868547639FFB00374500400B
:10040000C54513050540EF00B022A38571872384FD
:1004100071832385018603C7A185914763FEE702A7
:10042000A38C618503C7918683C7A186D98F03C733
:100430008186D98FE39D07ECEF1000448947A38C98
:10044000F184238D0184EF10004837450000130527
:10045000450CEF20805C65BD83C791850547E3832C
:10046000E7FC0947E395E7EAF9BFB717024098436D
:10047000B706FFF841111367170098C3D843370632
:100480000200758FD8C39843B706F7FEFD16758F27
:1004900098C39843B706FCFFFD16758F98C3D843E1
:1004A000B70681FFFD16758FD8C39843B70600ECD9
:1004B000FD16758F98C33707FF0098C723A607025C
:1004C00002C402C69843C166558F98C3B71602404E
:1004D00005679C42F18F3EC6A24785073EC4B247DE
:1004E00081E7A247E397E7FEB71702409C431397C3
:1004F000E7006357070685473EC632478547631FB7
:10050000F704B7170240D843B706C1FFFD16D8C39A
:10051000D843D8C3D84313670740D8C3D843758F8F
:10052000D8C3D843B7061D00558FD8C39843B70624
:100530000001558F98C3984393166700E3DD06FECC
:10054000D843B7160240719BD8C3D843136727001E
:10055000D8C32147DC42B18BE39EE7FE4101828094
:1005600002C661BF01A001A001A001A001A001A0DD
:1005700001A001A001A001A001A001A001A001A073
:1005800001A001A001A001A001A001A001A001A063
:1005900001A001A001A001A001A001A001A001A053
:1005A00001A001A001A001A001A001A001A001A043
:1005B00001A001A001A001A001A001A001A001A033
:1005C00001A001A001A001A001A001A001A001A023
:1005D00001A001A001A001A001A001A001A001A013
:1005E00001A001A001A001A001A001A001A001A003
:1005F00001A001A001A001A001A001A001A001A0F3
:1006000001A001A001A001A001A001A001A001A0E2
:1006100001A001A001A001A001A001A001A001A0D2
:1006200001A0970100209381E1251781002013018B
:10063000619D17750000130525D19705002093854E
:10064000659C1386818263FAC5008322050023A07E
:10065000550011059105E3EAC5FE13858182938556
:1006600041BB6377B500232005001105E36DB5FE9E
:10067000FD42739002BCFD4273904280B76200005D
:100680009382820873A00230970200009382029B3B
:1006900093E2320073905230EFF03FDD970200009A
:1006A000938222C173901234730020305841032882
:1006B00005004C4537060140930706403E97934698
:1006C000F8FFB1C583250640F58D2320B640D04301
:1006D000F18ED4C31443B3E6060114C31841904706
:1006E0009346F7FF758E90C7D047F18ED4C7144557
:1006F00041466399C6009447D98E94C7D447558F15
:10070000D8C78280B6979443558F98C382801C4384
:10071000F58F1CC38280B70701401387074083A76A
:100720000740584B698F09C77D8D3335A000828003
:1007300001458280B707014023AAA7408280144563
:100740005C4158450328C502D58FD98F1849370613
:1007500000A0D98F5849D98F184DD98F584DD98FAE
:100760001851D98F5851D98F1855D98F1859B3E7C7
:100770000701D98F18410A073A961CC2A147639610
:10078000F6001C4293E707041CC254598C4E9C424D
:10079000CD8FCC429205CD8F8C46A205CD8FCC4615
:1007A000C205CD8F8C4AD44AD205CD8FE206D58FB3
:1007B0005CC291676319F802145D904E9C42D18F20
:1007C000D0421206D18F90462206D18F904AD44A49
:1007D0005206E206D18FD58FB70600A09386461049
:1007E00036971CC38280B70700A0938747103E97B7
:1007F000B7070010FD17F5B7B70700A00A053E952B
:100800001C4189C593E717001CC18280370710007F
:100810007917F98FD5BF9C4513F7070113F8F70037
:1008200001C7D8413368E80083D5050013F7F50FF9
:1008300039C318418146854E3D4F930F8002930284
:100840008004214E3396DE00B3F8C5006311160311
:100850009398260033131F011343F3FF3377E3000C
:10086000B318180133E7E800639FF70550C9850600
:10087000E39AC6FD18C11307F00F6375B70454411E
:100880002146854E3D4F930F800293028004414ED6
:10089000B398CE0033F715016392E80213172600D0
:1008A00001173313EF001343F3FFB376D30033176D
:1008B000E800D98E639DF701232A15010506E31987
:1008C000C6FD54C18280E39457FA10C94DB7E3972F
:1008D00057FE23281501DDB74CC9828013F7C50FD9
:1008E00093F73500B7050140BA9594458A073D470F
:1008F0003317F7001347F7FF758F98C598453315E1
:10090000F500598D88C5828023A6A18282809387B5
:10091000C18294430347050089E683472500920777
:1009200031A8944305466391C604834725000346D6
:10093000150092076314D60093E707F8B7E600E0C6
:1009400093F7F70FBA962380F640854693575700E2
:100950003397E6005441ADC6938707048A07B7E68C
:1009600000E0B69798C382808C4389466393D50292
:1009700083461500834725006365D6008A06B6972F
:1009800079BF9386E6038A06B69793F7F70F920727
:1009900065B790438D46631ED60083461500834796
:1009A00025006364D6008606D9BF9386C6078606EF
:1009B000E1BF94439147E39AF6F88347150085B762
:1009C0009387070661BF371702405C439146B18B9E
:1009D0006385D700A1466386D706B7177A00938749
:1009E00007201CC1371602405C423707002013075E
:1009F00007009183BD8BBA9783C607001C41B3D70C
:100A0000D7005CC15442A1829D8ABA9683C6060073
:100A1000B3D6D70014C55442AD829D8A369703479A
:100A20000700B3D7E7005CC5584239839376370097
:100A300013878180369703470700B3D7E7021CC9A5
:100A400082805C4354434167C983F98E37F7FF1FA7
:100A50000327C770BD8B890713161701634806006B
:100A6000454601476392C702C94739A809476389C8
:100A7000E7023D476388E70241476388E70245464E
:100A800001476393C700C14785E6B746024083A686
:100A90000680C18A8DC6B7167A009386062025A0E7
:100AA0000147D9B70547B547C5B70147BD47E9BFB6
:100AB000B7160240D4421396E600E35E06FCB71672
:100AC0003D0093860690B387D7021CC101DF1C410D
:100AD000858301BF99C5371702405C4B5D8D48CBBC
:100AE0008280B7170240D84B1345F5FF798DC8CBEC
:100AF000828099C5371702401C4F5D8D08CF8280D8
:100B0000B7170240984F1345F5FF798D88CF828043
:100B10008357050037370140930607C0C207C183DA
:100B20006300D504B7060040630CD50293860640E7
:100B30006308D502B7160040138606806302C5021B
:100B4000938606C0630ED50013070740630AE500CD
:100B500037570140930607C06304D5006317E500CB
:100B600003D7250093F7F7F8D98F37170040630DA7
:100B7000E500130707406309E50093F7F7CF03D7B4
:100B80006500C207C183D98F2310F50083D74500C4
:100B90002316F50283D705002314F502B737014069
:100BA000138707C0630EE50093870740630AF500CB
:100BB000B7570140138707C06304E5006316F500CB
:100BC00083C785002318F5028547231AF500828024
:100BD0008357050265771307F7CFC207C183BD9B13
:100BE000C207C1832310F5028357050283564500CF
:100BF00003D88500C2071396060183568501C18379
:100C000093F7F7FD758F83D605004182A206558FB5
:100C100083D6250042074183B3E606019206D58FAD
:100C2000B7360140C207138806C0C183630E0501B1
:100C300093860640630AD500B7560140138806C064
:100C4000630405016311D50483D6A50093F7F7F774
:100C500003D8C5009206D58F83D64500C207C1834D
:100C6000920693F7F7FBD58FFD769386F63FF18ECC
:100C700003D6E500C207C183336606010A06D18E9A
:100C80001396060141822312C500231CE50003D7F9
:100C90006500231CE5022310F502828083570500BE
:100CA00091C593E717002310F5008280C207C18326
:100CB000F99BC207C183C5BF8357450491C521670E
:100CC000D98F2312F5048280C607C583DDBF835701
:100CD000050091C593E707082310F5008280C2073D
:100CE000C18393F7F7F7C207C183FDB703578501A7
:100CF000FD779387F77FF98FA205CD8FC207C18358
:100D0000231CF50082802312B5028280231CB502C9
:100D10008280835705010355C500ED8F420541814F
:100D200089C76D8D3335A00082800145828093C5CF
:100D3000F5FFC205C1812318B500828083560501E5
:100D4000F577FD17F58F83D66500397122DC06DE55
:100D5000D58F03D7C5002318F5008356C500FD774E
:100D60009387379FF58F83D645002A842EC6D58F6B
:100D700083D68500D58F83D6A500D58F2316F500A1
:100D800083574501C207C18393F7F7CFD98F231A41
:100D9000F50068080D39B747014093870780B245D1
:100DA000631EF404A2578356C4006547B387E70265
:100DB000C206C186984163D5060406070356C400DF
:100DC0004206B3D7E702130740064186B3D6E702CF
:100DD000B3F7E7029206635706028E07938727034D
:100DE000B3D7E70213F77700B367D700C207C18311
:100DF0002314F400F250625421618280925765B747
:100E00000A076DBF920793872703B3D7E702BD8B0D
:100E1000D58FE9BF81C98357C5000967D98F2316CC
:100E2000F50082800357C500F977FD17F98FC5BF1C
:100E300093F5F51F2312B500828003554500137505
:100E4000F51F8280035505006D8D3335A00082802B
:100E500013F7F50F85461583B397B6006313D702D2
:100E60000357C500F98F0357050001454207418329
:100E700081CB0545A181B315B5006D8F3335E000F9
:100E8000828089466315D70003570501E1BF0357E8
:100E90004501C9BFB707002083A7470837177A0065
:100EA00013070720B3D7E70293F7F70F2389F182DF
:100EB0001307803EB387E7022398F1828280B7F759
:100EC00000E0D8438146799BD8C303D7018333061A
:100ED000A70290CBD4CB98431367170398C3D8438A
:100EE000058B75DF9843799B98C38280797122D4F2
:100EF0002A8411658545110506D6E53E9307002035
:100F00002312F100371501408D473EC44C00E147E4
:100F1000130505803EC6013222C837440140B70799
:100F200008000C08130504803ECC02CA231E0100F1
:100F30003135130504808545F13DB2502254456199
:100F40008280011126CAB744014022CC4AC84EC64D
:100F500006CEAE893289014493840480634A240119
:100F6000F24062444A85D2444249B24905618280D6
:100F7000930500042685F93565DDB38789008385EF
:100F8000070026850504C205C1815D35C1BF1387F1
:100F9000C1801C43938641BB3E95636BD500B786E9
:100FA00000209386068063E5A60008C33E85828004
:100FB000FD57EDBF828082803757004083570780FE
:100FC00093F70704E5DF420541812312A780828061
:100FD00041111305F00F06C6C537B2400545410162
:100FE000E1BF411122C4138401810345340006C6C8
:100FF000E13703452400C93703451400753F034515
:1010000004002244B240410145BF411122C42A8458
:10101000014506C655371375F40F2244B24041010D
:1010200061BF411122C42A84218106C6713713751C
:10103000F40F2244B240410141B701119307F01E61
:101040002314F1009387018103D707009C4326CA2C
:10105000931687002183558F93D68701C183A305FB
:10106000F1009D4722CC4AC806CE2A842305D10030
:101070002316E1002317F100239801863709002089
:101080007D144204418019E001450DA00545053D50
:1010900083D70187C207C187E3D407FE2C0013055D
:1010A000091123980186EF10F01779D9F2406244B4
:1010B000D244424905618280011185451305000231
:1010C00006CE053CA1472312F100371501409307D6
:1010D00080023EC64C008D47130505403EC4EFF02C
:1010E0008FF3F24005618280411106C6D535D53DAA
:1010F0000545D9350D45113F05457D3D154515374C
:101100001305007D1D3F9307F00F19C1834795001C
:10111000B2403E8541018280411106C622C42A8424
:10112000453DC1350545493D1145C535094569353B
:101130002285593513057400ED351305007DF53D05
:1011400019C503459500B240224441018280130530
:10115000F00FD5BF797106D636C622D426D24AD032
:101160004ECE2E89B28952CC2A8A9D359D3D0545A9
:10117000A1352145593D6D4581355285135489006E
:10118000253D2285153D1375F90F3D3593D4890012
:1011900026851D3513F5F90F053513F5F90FAA94BA
:1011A000138544022A941379F90F4A9433054401B4
:1011B0008D3D1305007D51350DCDAA8703C7A700CE
:1011C00003C6B700B2462207329703459500239025
:1011D000E60003C7C70083C7D70022073E972391C5
:1011E000E600B250225492540259F249624A4561D3
:1011F00082801305F00FF5B79307000263EAA7009A
:101200009317250011651305050D3E950841828051
:1012100037450000130545158280411185471307A6
:1012200000028546054693058002014506C622C494
:10123000EF102052854713070002854609469305A3
:10124000800213058002EF10C0508547130700028B
:1012500085460D469305800213050005EF10604F8B
:101260008547130700028546114693058002130542
:101270008007EF10004E854713070002854615468C
:10128000930580021305000AEF10A04C8547130751
:10129000000285461946930580021305800CEF1065
:1012A000404B85471307000285461D469305000500
:1012B0000145EF10004A8547130700028546214685
:1012C0009305000513058002EF10A048854713071A
:1012D0000002854625469305000513050005EF101D
:1012E00040478547130700028546014693050005E0
:1012F00013058007EF10E045374700001307072E5E
:10130000814613060002930500051305000AEF103D
:101310002037374700001307472E81461306000287
:10132000930500051305800CEF108035138481832D
:1013300003460400854713070002854681451305CF
:101340008002EF1000410346140085471307000296
:101350008546814513050005EF10A03F0346240094
:101360008547130700028546814513058007EF1066
:10137000403E034634002244B24085471307000232
:10138000854681451305000A41016F10803C7D159B
:101390009946B367D50213078002BD65938505A6FC
:1013A000B346D502B387E702B386E60203A64183BC
:1013B00093F7F70F13874183050693F6F60F63C57E
:1013C000C50210C310431D679305F75263C1C502E0
:1013D0001395070141674181938666047D171306C3
:1013E0004501B6856F00F05323200700E1BFE57586
:1013F0009385F5AC2E961307E7526369C7001395E2
:1014000007014181938666040147D1BF828093071B
:10141000F5FF994633E5D70213078002B3C6D7021A
:10142000B386E6023305E50293F6F60F938666046B
:101430000147B6851375850F130645016F00704E81
:10144000411122C426C206C6A547AA841384018579
:1014500063E7A704034504001308800285470505D8
:101460003305050313070002854626868145EF10E4
:10147000402E0347040093878183BA972380970007
:1014800005072300E400034704008D4763F4E700E9
:1014900023000400B2402244924441018280A947C3
:1014A0006319F5020345040013088002854705050A
:1014B0003305050313070002854601468145EF10F9
:1014C00040290347040093878183BA97238007004C
:1014D00045BFAD476314F504834704001307F00FBD
:1014E000FD1793F7F70F6389E7022300F400034524
:1014F000040093878183AA971308800205053305AA
:10150000050323800700130700028547854601462F
:101510008145EF10002485BF8D47C1BFB147E3145B
:10152000F5F613878183938741810346070083C6BD
:101530000700631DD6040346170083C61700631710
:10154000D6040346270083C627006311D604034749
:10155000370083C73700631BF70201479306000A71
:101560001306800C930580070145EF00903B374739
:101570000000130707298146130600029305800720
:101580000145EF10E00FEFF0FFA2F5BD0147930614
:10159000000A1306800C930580070145EF007038A0
:1015A000374700001307C729814613060002930539
:1015B00080070145EF10C00CEFF0FF9F9387A185D6
:1015C00003C7070005072380E70075BD411126C248
:1015D0001387C1831C4322C406C685071CC33D670D
:1015E000130707A69384C18313840184635BF70008
:1015F0001C4023A004001307C00385076349F704B8
:101600001CC01C40954698406392D7083DEB93065A
:10161000800C1306000F9305000A0145EF0070309F
:1016200083A7818805476396E702EFF0BF982244BD
:10163000B2409244374700001307872A81461306B9
:1016400000029305000A014541016F10600318C0B4
:101650004DBF09476397E702EFF0FF95374700005A
:101660001307472B8146130600029305000A014524
:10167000EF1000019387A18503C7070005072380AA
:10168000E700B2402244924441018280D917F5FB21
:101690006DFB9306800C1306000F9305000A0145AD
:1016A000EF003028A384018623A004002320040037
:1016B000C9BF411126C2138741841C4322C406C6F8
:1016C00085071CC33D67130707A6938441841384D1
:1016D0008184635BF7001C4023A004001307C00350
:1016E00085076348F7041CC01C401547639DE70449
:1016F0009C40BDEF01479306800C1306000F930535
:10170000000A0145EF00F02183A741880547639453
:10171000E70237470000130787272244B24092446C
:101720008146130600029305000A014541016F003E
:10173000307518C055BF0947639CE7023747000062
:1017400013074728D9BF29476394E7029C408DE3DC
:1017500001479306800C1306000F9305000A01450C
:10176000EF00301C2384018623A004002320040002
:10177000B2402244924441018280411126C2138723
:10178000C1841C4322C406C685071CC33D671307DA
:1017900007A69384C18413844185635BF7001C40D2
:1017A00023A004001307C0038507634AF7041CC085
:1017B0001C4015476393E7089C40D5EB014793060F
:1017C000B00E1306000F9305800C0145EF00701555
:1017D00083A7C18805476396E702EFF0AFFD224477
:1017E000B2409244374700001307072C8146130686
:1017F00000029305800C014541016F00706818C01C
:1018000045BF09476395E7069387A18503C707008E
:1018100081461306000205072380E70037470000D2
:101820001307C72C9305800C0145EF007065224417
:10183000B240924441016FF00FF829476399E702E3
:101840009C4095E701479306B00E1306000F9305E1
:10185000800C0145EF00F00CA385018683C78181D0
:1018600023A00400232004008507238CF180B240CC
:1018700022449244410182804111014506C6812DD6
:10188000C1650965938505801305358EB52B054720
:101890009306000A1306800C9305000513058002C9
:1018A000EF005020374700001307872D81461306AD
:1018B00000029305800613050004EF00705CB2403F
:1018C00041016FF04FEF9387C1859443056613067E
:1018D0000677850694C31387C18593870186635C69
:1018E000D6009043BD66232007000506938606A612
:1018F00063C4C60290C390438D4663DEC6001443A2
:10190000635BD0002320070023A007000547A38CBA
:101910000184238CE184828094C38280397185455F
:101920001305500606DE22DC26DAEFF08F9C372501
:101930000140130480049307E0034C08130505805D
:10194000231AF10022CEB7140140EFE0DFEC854707
:101950004C0813850480231AF10022CEEFE0BFEB80
:101960008967938707044C0813850440231AF10004
:1019700022CEEFE05FEA81450145EFE03FF6854585
:101980001145EFE0BFF589451145EFE03FF58D4585
:101990001145EFE0BFF491451145EFE03FF4954567
:1019A0001145EFE0BFF399450D45EFE03FF3B54535
:1019B0000D45EFE0BFF289679387F7073ED00544F6
:1019C000B14708103ED422D602D2EFE03FCE9307B3
:1019D00060112316F100680089472307F10022C82F
:1019E000EFE0FFF2DD4768002306F100EFE03FF291
:1019F000E14768002306F100EFE07FF1E54768006A
:101A00002306F100EFE0BFF0E94768002306F1008C
:101A1000EFE0FFEF9307700268002306F100EFE0AC
:101A20001FEF9307800368002306F100EFE03FEE0D
:101A3000F2506254D254216182800545EFE0BFCD5F
:101A400015C903C7918683C78186D98F1387A1865D
:101A500083460700D58F81EF83C78181858B93B73C
:101A60001700850723A6F18885472300F700054561
:101A7000EFE05FCC730020300945EFE0DFC90DC116
:101A800013877186834707009306F00FFD1793F7BE
:101A9000F70F6389D70009452300F700EFE09FC9DE
:101AA000730020308547C5BF1145EFE0DFC605C193
:101AB00013877186834707008546850793F7F70FDD
:101AC00063E9F6002300F7001145EFE0BFC673009D
:101AD000203023000700CDBF2145EFE0DFC305C163
:101AE00013876186834707009546850793F7F70FAD
:101AF00063E9F6002300F7002145EFE0BFC3730060
:101B0000203023000700CDBF4145EFE0DFC015CDF9
:101B10009386918603C7060083C78186D98F03C742
:101B2000A186D98F85E39387518603C70700137673
:101B30001700050623A4C188050705462380C600B3
:101B40002380E7004145EFE0FFBE7300203013051E
:101B50000004EFE05FBC15C513876186834707006B
:101B60009306F00FFD1793F7F70F638AD700230052
:101B7000F70013050004EFE0FFBB7300203095472A
:101B8000FDB713050002EFE01FB965D91386818602
:101B900003C7918683470600D98F03C7A186D98FD3
:101BA00095E3138741868346070093F7160093B7A2
:101BB0001700850723A2F188850685472300F600D4
:101BC0002300D700130500027DB70965EFE0BFB41D
:101BD00019C5054709652386E186EFE0BFB57300A7
:101BE000203013578500B70702602380E700137584
:101BF000F50F2380A7008280B707026083C7070024
:101C0000411193F7F70FA307F1000345F1004101DC
:101C1000828035711306C0038145C80006CF22CDEE
:101C200026CB4AC94EC752C556C302C0930AC1004B
:101C300002C202C4EFE0CFDC714681455685EFE079
:101C40002FDC130A8102714681455285EFE04FDB9C
:101C5000854513050010EFE0FFE785451305800675
:101C6000EFE03FE9B7140140F1770D44E149938774
:101C700037738A85138504402310F1004EC422C2B5
:101C8000EFE07FB937250140930700F88A851305F7
:101C900005802310F1004EC422C2EFE0DFB78A8531
:101CA000138504400569231021014EC422C2EFE0D0
:101CB0009FB6C1478A8513850440130909803EC435
:101CC0002310210122C20569EFE0FFB493050980CA
:101CD00013850440EFE05FC085473EC6BD473ECA5E
:101CE000C800916722D8CAD4BED8D6DCD2DE02C8DA
:101CF00002CC02CE02D002D202D402D602DA02DC38
:101D000002DE82C082C282C482C682C882CA82CEF9
:101D100082CC82D082D282D682DAEFE05FA2854581
:101D20000145EFE07FADFA406A44DA444A49BA49D6
:101D30002A4A9A4A0D6182800565397185451305E5
:101D4000958006DE22DCEFE0DFDA9167231AF100EE
:101D500037150140E1473ECE4C088D47130505C0BD
:101D60003ECCEFE05FAB373401409307F0083EC450
:101D70002C0093074006130504C03EC6EFE05FD970
:101D8000930700062310F102B707320091070C10E9
:101D9000130504C03ED223150102EFE07FE31305D3
:101DA00004C08545EFE05FF1130504C08145EFE015
:101DB000FFF3130504C08545EFE07FF1130504C070
:101DC0008545EFE0BFEDF2506254216182809307B8
:101DD00040069375F50F63F4A70093054006373569
:101DE0000140130505C06FE07FF29357850013573C
:101DF00055001377077E93F707800D81D98F7D8972
:101E00005D8D4205418182802397A186239DB1800B
:101E10008280B70702601307A002A38FE7FE135763
:101E200085002380E7001375F50F2380A700135763
:101E300086002380E7001376F60F2380C700130780
:101E4000B002A38FE7FE13D785002380E70093F548
:101E5000F50F2380B70013D786002380E70093F6A1
:101E6000F60F2380D7001307C002A38FE7FE8280FE
:101E7000B70702601307A002A38FE7FE1357850080
:101E80002380E7001375F50F2380A7001357860002
:101E90002380E7001376F60F2380C7001307B002F4
:101EA000A38FE7FE13D785002380E70093F5F50F96
:101EB0002380B70013D786002380E70093F6F60F40
:101EC0002380D7001307E002A38FE7FE8280411131
:101ED00022C426C29306F00E935485001374F50FA6
:101EE0001306F00E8145014506C625371307000F7E
:101EF000B70602609307000FFD1723809600C20704
:101F000023808600C183EDFB7D17420741837DF36B
:101F1000B2402244924441018280011106CE22CC7B
:101F200026CA4AC8113DF531370402609147A30F14
:101F3000F4FED931D1312AC6C1312A897539B24569
:101F4000AA84374500001305852EEF00701B374526
:101F50000000CA8513058530EF00901A3745000050
:101F6000A6851305C531EF00B01913052003EFE076
:101F70001FF593076003A30FF4FE2300040013066C
:101F8000A003A30FC4FE95472300F400930700FBB2
:101F9000A30FF4FE23000400130700FC2300E40059
:101FA000930720FBA30FF4FEB1462300D4002300C7
:101FB000D40023000400930730032300F40023001F
:101FC000F400930570FBA30FB4FE230004009305F7
:101FD000B0FBA30FB4FE1303F00323006400A30FB0
:101FE000E4FE1307C0022300E400130720FCA30F44
:101FF000E4FE05472300E400130730FCA30FE4FED2
:10200000B54823001401130740FCA30FE4FE130797
:1020100000022300E400130760FCA30FE4FE0D4759
:102020002300E400930500FDA30FB4FE930540FADE
:102030002300B400930510FA2300B4008155A30FC8
:10204000B4FE415823000401A5452300E400230009
:10205000B4002300E4002300E40041452300A40071
:102060009305D0022300B400130730042300E400DA
:10207000230064002300F4002300140139472300E7
:10208000E4009304900223009400930820032300AB
:1020900014018558A30F14FF230004012300D4006A
:1020A0002300A4002300E4002300E40029472300C8
:1020B000E4002300B4002300F4009307500423003D
:1020C000F4002300C400D1472300F400E5472300B7
:1020D000F400930710032300F40093077003230018
:1020E000F40093071002A30FF4FEC547A30FF4FEFC
:1020F00013054006EFE0BFDC0145D13BA30F94FE82
:10210000F2406244D24442490561828041112A86EC
:10211000AE8606C6FD39B24003D5A18141016FF0FC
:102120005FAC011122CC4AC84EC652C456C206CE7C
:1021300026CAAA892E84328A3689BA8AD93963771F
:102140008902F2406244D2444249B249224A924A48
:102150000561828085045685C204EFF09FA8C18086
:10216000E37A9AFE050442044180D1BFCE84CDBFFC
:10217000130101DF23248120232611202322912013
:1021800023202121232E311F232C411F232A511FBD
:102190002328611F2326711F2324811F2322911FBF
:1021A0002320A11F3304A6406394D508EFF07FC617
:1021B0001306001E81450A85EFE08F8483D7A18135
:1021C0008A8613D6870013F7F70F81476393870436
:1021D00086070147B70602606394E7048320C120A5
:1021E0000324812083244120032901208329C11F46
:1021F000032A811F832A411F032B011F832BC11E2A
:10220000032C811E832C411E032D011E130101216D
:1022100082802380C600A380E600850789067DB7FB
:102220003306E1000346060005072380C6006DB7AC
:10223000AA84AE873687AE8C3389B640854B634718
:102240008000814B01C43304C540FD5B054C6348ED
:102250002001014C630509003389E7407D5CA289B8
:1022600063532401CA89014B814A014A138D190025
:10227000E3464DF793950C0113950401C18141810B
:10228000A29A69354A9B63D55901B38A3A41DE94D3
:1022900063D56901330B3B41E29C050A420A135A9C
:1022A0000A01F9B7011122CC26CA4AC84EC606CE89
:1022B0002A892E84B289B68401C703D7E186953571
:1022C000A2864E86A2854A856535A6864A86A2855F
:1022D0004A85793DA6864E86A6854A85513DA285CA
:1022E0006244F2404249A6864E86D2444E85B249A7
:1022F0000561BDBD13D816009307000F3388074151
:10230000636FA836958F63ECB7361301019C232CBD
:102310008162232A916223282163232631630116D7
:10232000232E1162232441632322516323206163FE
:10233000232E7161232C8161232A91612328A161BD
:102340002326B161C147BA89AE842A841379F60F76
:102350006394F610130A7400938AF40013060018AD
:1023600081450A85420AC20AEFD09FE9135A0A0141
:1023700093DA0A01638B0908D686A68552862285E0
:10238000916AEFF01FA912098144938A0A3AE14B3E
:10239000414B33847403B3079900D69703CD0700EC
:1023A000214A0A9493178D01E18763D5070803D565
:1023B000A1817D1A420A060D135A0A01EFF07F82AD
:1023C000137DFD0F0D04E31F0AFC8504E39364FDF8
:1023D0008320C16303248163832441630329016350
:1023E0008329C162032A8162832A4162032B01622D
:1023F000832BC161032C8161832C4161032D016119
:10240000832DC160130101648280D6865286A68521
:102410002285EFF0FFA5EFF02FFE014B930B001884
:10242000EFF08FFDB30761012380A700050BE319CF
:102430007BFF99B76385090003D5E1869DBF83477C
:10244000040003451400C2072205C98F0345240078
:102450005D8DEFF09F99B1BFE1476396F610930A47
:10246000B400138A74011306003681450A85C20A36
:10247000420AEFD0FFD893DA0A01135A0A016381A6
:102480000908A685D28656862285EFF09F98930785
:1024900000183309F902156C8A84814C130C0C98CE
:1024A00013593900139B0C0193070003135B0B01B5
:1024B000E380FCF2330799016297137B1B00834A88
:1024C0000700A14B63030B00914BC20B2684014A0A
:1024D00093DB0B0113978A0161876358070403D5C7
:1024E000A181050A420A860A135A0A01EFF06FEF2A
:1024F00093FAFA0F0D04E36F7AFD850CC9045DB7FA
:10250000D2865686A6852285EFF09F96EFF0CFEE15
:10251000014B930B0036EFF02FEEB30761012380E0
:10252000A700050BE3197BFFA9BF6385090003D54D
:10253000E18645BF631F0B000347040003451400F9
:1025400042072205498F03452400598DEFF0FF898A
:1025500049BF034764000345740042072205498FC1
:1025600003458400DDB7930700026399F60C130A54
:10257000F400938AF4011306006081450A85420A3B
:10258000C20AEFD0FFC7135A0A0193DA0A01638027
:102590000906D686A68552862285996AEFF07F873E
:1025A0001A098144938A0AB2E14B130B0004338465
:1025B0007403B3079900D69703CD0700214A0A9404
:1025C00093178D01E18763D9070403D5A1817D1A93
:1025D000420A060D135A0A01EFF0AFE0137DFD0F1A
:1025E0000D04E31F0AFC8504E39364FDD5B3D6868E
:1025F0005286A6852285EFF0BF87EFF0EFDF014B13
:10260000930B0060EFF04FDFB30761012380A70059
:10261000050BE3197BFFB5BF6385090003D5E18690
:102620007DB78347040003451400C2072205C98F04
:10263000034524005D8DEFF04FFB51BF0324816300
:102640008320C16383244163032901638329C16219
:10265000032A8162832A4162032B0162832BC161B9
:10266000032C8161832C4161032D0161832DC160A5
:1026700037450000130505331301016451A482801E
:10268000557126DB4AD94ED7AA84B2892E89130602
:1026900000088145080822DD5ECF3A84BEC306DF0C
:1026A00052D556D35AD162CDB68BC2C5C6C7EFD06C
:1026B0003FB513F779FFC147630CF700930700029A
:1026C0006388F90037450000CE85130505380D2CC9
:1026D000D401228693054006080836C6DD2613D7A6
:1026E00019009307000F131B0701416A338CE74061
:1026F000135B0B010008B38A3741130A0A80834732
:10270000040089EFFA506A54DA544A59BA592A5ADD
:102710009A5A0A5BFA4B6A4C6961828063779C0023
:102720004E99420913590901814463F72A015285E0
:10273000EFF0EFF901498144034604002685DA945D
:102740005E87CE86CA85C204EFF0DFBAC180050479
:102750007DB73A8837470000BE861307C737B28770
:10276000428639BF411122C4371400408545130504
:10277000044006C6EFE0EFD905C583D70187A166FF
:1027800013050440D58F85452398F186EFE02FDAB5
:10279000130504402244B240814541016FE00FD04F
:1027A000B240224441018280411122C4375400408A
:1027B000930550521305048006C626C24AC0EFE0B6
:1027C0002FE925C913050480EFE02FE793870187E0
:1027D00003D70700AA841384018742074187634A0D
:1027E0000704035704009306F01863EAE604371958
:1027F0000040814513050940EFE0EFD08357040006
:10280000C207C18391E7854513050940EFE00FC971
:1028100083570400C207C18313871700420741830F
:102820002310E4003707002013070711BA9723800D
:102830009700B2402244924402494101828003D76A
:102840000700A166558F2390E700E5B7411122C428
:1028500001472A849306000A1306000F9305800798
:102860001305800706C6EFF0DF8B2285EFE0DF98C7
:102870002244B2402A87814613060002930580074E
:10288000130580074101EDBB8280011106CEEFE008
:10289000BF8539E90545EFE03F8831E9740013064B
:1028A000C01281450545EFE0FF8A31E101479306FB
:1028B000C00D1306000F9305800CEFF09F8637774D
:1028C00000001307072A814641469305800C014505
:1028D000EFF01FDB01479306C00D1306000F9305B1
:1028E000800C0145EFF0FF83F24005618280B93F23
:1028F000D5B7B787224283A7C71091C379B7828023
:1029000039713EDA2ED232D436D63AD842DC46DE9F
:102910009387C18122CC804326CA06CEAA8409C4EB
:102920001C4C99E32285C92B0C4454102686228521
:1029300036C6EF009058F2406244D2442161828052
:10294000011126CA4AC806CE22CC4EC652C4AA8459
:102950002E8901C51C4D91E345239C4C804499E38D
:102960002685592B9757000093874796631CF402DE
:10297000C0408357C400A18BB1C71C48A1C7FD59F3
:10298000294A1C4483450900FD17B1E91CC463DED4
:1029900007062286A94526852D2AFD576308F502DC
:1029A000294535A097570000938747946314F40096
:1029B0008044C1B7975700009387478FE31BF4FA11
:1029C000C04445BFA2852685E92255D97D55F240F0
:1029D0006244D2444249B249224A056182801CC401
:1029E000050963D70700184C63CBE70063894501ED
:1029F0001C401387170018C02380B70059B72286E0
:102A00002685C128E31F35F7D1B71C40138717006F
:102A100018C029472380E70061B79387C181AA8541
:102A2000884339BF0347050083C7050001E791C309
:102A300001458280814701A88347150013071500CF
:102A4000E5DB81473A853387F5000347070075D3F7
:102A5000B306F50083C60600E390E6FE85072A87E5
:102A6000D5B71971A2DC86DEA6DA3284635B060074
:102A70009307B0081CC17D55F6506654D6540961C1
:102A800082803686930680202EC42ECC231AD10055
:102A9000814519C09305F4FFFD572EC82ECEBA8686
:102AA0002C00231BF100AA84EF007012FD57635520
:102AB000F5009307B0089CC061D0A24723800700AF
:102AC00065BF9387C1813687B2862E86AA858843E3
:102AD00049BF011122CC26CA4AC806CE4EC6AA84D6
:102AE0002E89328401C51C4D91E33921974700009E
:102AF0009387C77D6319F406C0401C4C1CC48357E0
:102B0000C400A18BC9C31C48BDCF1C4808409379A1
:102B1000F90F1379F90F1D8D5C486346F500A28506
:102B20002685652C2DE51C440505FD171CC41C409D
:102B30001387170018C0238037015C486389A700FA
:102B40008357C400858B81CBA9476316F900A28502
:102B5000268561240DEDF24062444A85D244424903
:102B6000B2490561828097470000938727786314F4
:102B7000F400804459B79747000093872773E31EFA
:102B8000F4F6C0449DBFA285268521203DDD7D59F8
:102B9000D9B741119387C18126C2844322C44AC058
:102BA00006C62A892E8489C49C4C99E32685A926C9
:102BB0009747000093878771631CF402C040031796
:102BC000C40093170701C18393F68700B5EE93F60F
:102BD00007019DEEA5472320F9001367070423167C
:102BE000E4007D55B2402244924402494101828072
:102BF000974700009387876F6314F4008044C1B740
:102C0000974700009387876AE31BF4FAC04445BFE7
:102C1000918B8DC74C5889C9930744046384F50090
:102C20004A85352B232A04028357C400232204003B
:102C300093F7B7FD2316F4001C481CC08357C4004B
:102C400093E787002316F4001C4881EF8357C400E4
:102C50001307002093F707286385E700A2854A85BC
:102C600085218357C40013F7170005C75C48232448
:102C70000400B307F0401CCC1C480145A5F783179E
:102C8000C40013F7070839DF93E707042316F4009D
:102C900089BF898B014791E3584818C4F1BF83D796
:102CA000C500011122CC26CA06CE4AC84EC613F76B
:102CB0008700AA842E8471EFD841634DE000B841AB
:102CC000634AE0000145F2406244D2444249B249BD
:102CD0000561828058547DD703A90400939637017B
:102CE00023A0040063DD060670488357C400918B5F
:102CF00099C75C401D8E5C5899C33C401D8E5C5446
:102D00000C50814626858297FD570357C400631DEA
:102D1000F5009440F54763E8D706B70740208507DC
:102D2000B3D7D700858BA5C31C48232204001CC041
:102D30009317370163D80700FD576314F5009C40D3
:102D400091E368C84C5823A02401ADDD93074404E7
:102D50006384F50026852121232A0402A5B70C509F
:102D60000146854626850297FD572A86E31FF5F61C
:102D70009C40A5DF75476385E70059476394E704E6
:102D800023A0240181B7136707042316E4007D55AF
:102D90001DBF83A90501E38709F203A905008D8BF7
:102DA00023A0350133093941014791E3D84918C4BB
:102DB000E35A20F11C540C50CA864E862685829711
:102DC0006349A0008357C40093E707042316F40067
:102DD0007DBFAA993309A940E1BF9C49B9CF011130
:102DE00022CC06CE2A8411C51C4D81E72EC629228D
:102DF000B245974700009387674D639BF5004C40B1
:102E00008397C50095C722856244F240056141BDA4
:102E1000974700009387874D6394F5000C44CDB726
:102E20009747000093878748E39CF5FC4C44C9BF53
:102E3000F240624401450561828001458280411172
:102E400022C406C62A842316B5002317C5002320F2
:102E5000050023220500232405002322050623283C
:102E60000500232A0500232C050021468145130572
:102E7000C505EFD0EFB8971700009387E7EB5CD05C
:102E800097170000938747EE1CD49717000093878D
:102E900087F25CD497170000938747F500D01CD8C1
:102EA000B24022444101828097050000938525F3BA
:102EB000A9A2411126C2130680069384F5FFB384AC
:102EC000C4024AC02E8922C406C693854407252E13
:102ED0002A8401CD2320050023222501310508C4C1
:102EE000138684068145EFD0AFB12285B2402244DB
:102EF00092440249410182801C4DADE3411106C656
:102F000022C497070000938767FA1CD59387018234
:102F10009C43232405042326050423280504631465
:102F2000F50085471CCD2A841D2848C02285052828
:102F300008C422852D2048C44840014691450137E8
:102F400008440546A545E53D48440946C945C53DF3
:102F500085471CCCB24022444101828082804111CD
:102F60009387018226C284434AC006C69C4C22C471
:102F70002A8999E326854937938484048044DC4078
:102F8000FD1763D607009C40B9CF8440C5BF031727
:102F9000C40039E7C17785072322040623200400F3
:102FA00023220400232404005CC423280400232AD1
:102FB0000400232C0400214681451305C405EFD0ED
:102FC0002FA4232A0402232C0402232404042326EE
:102FD00004042285B2402244924402494101828085
:102FE0001304840671BF91454A85E13588C051FDBF
:102FF000B1472320F9000144E9BF797122D44AD0B6
:1030000052CC56CA5AC85EC606D626D24ECE2A8A98
:10301000AE8A130485040149054BFD5B09ECB250EF
:1030200022544A8592540259F249624AD24A424B8A
:10303000B24B45618280044483294400FD1963D466
:1030400009000040E1BF83D7C400637BFB00839786
:10305000E40063877701A6855285829A3369A900C7
:1030600093848406E1BF1971A6DAAE848395E500E6
:10307000A2DC86DE328463DC050083D7C40023A093
:10308000060093F7070885E7930700401DA0300866
:1030900036C6EF00305BB246E34105FE7247BD67BE
:1030A000F98F7977BA9793B717009CC2F1BF93074E
:1030B00000041CC0F6506654D65401450961828054
:1030C00083D7C500011122CC06CE26CA4AC8898BF7
:1030D0002E8489CF930774041CC01CC885475CC824
:1030E000F2406244D244424905618280740030005B
:1030F000AA84953FA2452A892685312201ED8317AE
:10310000C40013F7072069FFF19B93E727002316FC
:10311000F400C9B797070000938747D99CD4835719
:10312000C40008C008C893E707082316F400A247A4
:103130005CC8B24791CF8315E4002685EF00305379
:1031400001C98357C400F19B93E717002316F400CD
:103150008357C4003369F9002316240151B7DDC138
:1031600083A7C5FF411122C406C626C21384C5FF2A
:1031700063D307003E94AA84EF005066938741878B
:103180009C4381EF2322040023AA81862244B2407B
:103190002685924441016F009064637EF4001440E0
:1031A0003307D4006396E7009843DC43369718C092
:1031B0005CC0D9BFBA87D84319C3E37DE4FE94430A
:1031C0003386D700631F86001040B29694C33386BF
:1031D000D700E31DC7FA10435843B29694C3D8C32F
:1031E00075B76375C400B1479CC04DB71040B306B6
:1031F000C4006316D70014435843B29614C058C095
:10320000C0C369B78280011126CA93843500F19842
:1032100006CE22CC4AC84EC6A104B14763F5F404D9
:10322000B14463E4B4042A89EF00505B938741877B
:1032300098433A8429E4938781879C4399E78145A1
:103240004A85EF00902C23ACA186A6854A85EF0025
:10325000D02BFD5963193507B1472320F9004A8562
:10326000EF00F05729A0E3DE04FAB1471CC1014585
:10327000F2406244D2444249B249056182801C4016
:10328000858F63CF0702AD4663F6F6001CC03E94FF
:1032900004C031A05C406313870223AAF1864A85EB
:1032A000EF00F0531305B40093074400619933070E
:1032B000F5405DDF3A94898F1CC05DBF5CC3C5B724
:1032C0002287404085BF130435007198E30285FCD6
:1032D000B305A4404A85EF005023E31B35FBADBF87
:1032E00001114AC803A9850022CC52C45AC006CE97
:1032F00026CA4EC656C22E84328B368A63EE260903
:1033000083D7C50013F7074851C704408C49584874
:10331000AA8AB389B4408D44B384E4020947B3C494
:10332000E402138716004E9763F3E400BA8493F720
:103330000740D9C3A6855685EFF0FFEC2A890DE535
:10334000B14723A0FA008357C4007D5593E70704D3
:103350002316F400F2406244D2444249B249224A60
:10336000924A024B056182800C484E86EF0010376E
:103370008357C40093F7F7B793E707082316F400C1
:103380002328240144C84E99B384344123202401C6
:1033900004C4528963732A01528908404A86DA8537
:1033A000EF00303F1C440145B38727411CC41C403B
:1033B0003E992320240179BF26865685EF0050428E
:1033C0002A895DFD0C485685EFF07FD995BF83D7DC
:1033D000C500717126D34AD14ECF06D722D552CD22
:1033E00056CB5AC95EC762C566C393F70708AA8958
:1033F0002E89B284B9C39C49A9E39305000436C65B
:10340000EFF07FE02320A9002328A900B24615E1B0
:10341000B14723A0F9007D55BA502A549A540A594D
:10342000FA496A4ADA4A4A4BBA4B2A4C9A4C4D61DD
:10343000828093070004232AF90093070002A30C5B
:10344000F1029307000302DA230DF10236CE930B4B
:103450005002974A0000938A6AEB054C294B268458
:103460008347040099C3639D7709B30C9440638E2E
:103470000C00E6862686CA854E85EFF07FE6FD576E
:103480006304F51AD256E69636DA83470400638D54
:103490000718FD579304140002D002D63ED202D47E
:1034A000A301010682DC83C5040015465685EF00A2
:1034B000502113841400825731E513F7070109C71F
:1034C00013070002A301E10613F7870009C71307DA
:1034D000B002A301E10683C604001307A002638BB8
:1034E000E602B25726848146254603470400930529
:1034F0001400130707FD6374E6068DC63ED61DA0B3
:103500000504B9BF330555413315AC00C98F3ED012
:10351000A28451BF724793064700184336CE6349D1
:1035200007023AD6034704009307E002631FF7043B
:10353000034714009307A002631BF702F247090434
:10354000138747009C433ACE63C107023ED235A899
:103550003307E04093E727003AD63ED0E1B7B38780
:10356000670385462E84BA9749B7FD57C5B705044A
:1035700002D2814681472546034704009305140083
:10358000130707FD6378E606F1F2834504000D4654
:1035900017450000130505D8EF00B01211CD97476D
:1035A0000000938727D71D8D93070004B397A700CA
:1035B000025505045D8D2AD0834504001946174540
:1035C0000000130565D593041400230CB102EF002D
:1035D000500F25C597D7FFFF9387C7A295E70257DE
:1035E000F2471377071009CF91073ECED257D297F3
:1035F0003EDAB5B5B387670385462E84BA97ADBF6B
:103600009D07E19BA107D5B7780897060000938630
:1036100066CD4A860C104E8597000000E70000003A
:10362000FD572A8AE314F5FC8357C9007D5593F7AB
:103630000704E39307DE5255C5B3780897060000E8
:10364000938646CA4A860C104E851929D1BF1C465E
:10365000FD171CC663DA0700184E63C5E700A947CB
:103660006394F5006FF0EFC61C422E851387170098
:1036700018C22380B7008280011122CC26CA4AC812
:103680004EC652C406CE2A89AE893284B304D6000F
:103690007D5A63149400014509A8834504004E86B1
:1036A0004A8575370504E31645FFF2406244D2446B
:1036B0004249B249224A05618280357122CD26CB2A
:1036C0004AC94EC706CF52C556C35AC1DEDEE2DC38
:1036D000E6DAAA89AE843289368409C51C4D99E39D
:1036E000EFF09F8197470000938747BE639BF40CE0
:1036F00083A4490083D7C400A18BF5C79C48E5C7C4
:1037000093070002A304F1029307000302D22305EA
:10371000F10222C6930B5002974A0000938A0ABF17
:10372000054C294B4A848347040099C36390770F63
:10373000B30C2441638D0C00E6864A86A6854E852F
:10374000253FFD576306F51E9256E69636D283470F
:103750000400638F071CFD571309140002C802CE32
:103760003ECA02CCA309010482D483450900154650
:103770005685812F13041900C24759E913F7070131
:1037800009C713070002A309E10413F7870009C75B
:103790001307B002A309E104834609001307A0023E
:1037A0006380E608F2474A848146254603470400C1
:1037B00093051400130707FD6379E60AB5CA3ECEE8
:1037C00085A897470000938767B26395F40083A4A8
:1037D00089000DB797470000938747ADE39CF4F04D
:1037E00083A4C90001BFA6854E85EFF08FBA09D921
:1037F0007D55FA406A44DA444A49BA492A4A9A4A03
:103800000A4BF65B665CD65C0D618280050421BFC5
:10381000330555413315AC00C98F3EC82289B1B775
:10382000324793064700184336C6634907023ACE2B
:10383000034704009307E002631FF70403471400E3
:103840009307A002631BF702B247090413874700DE
:103850009C433AC663C107023ECA35A83307E0401D
:1038600093E727003ACE3EC8E1B7B38767038546A2
:103870002E84BA9725BFFD57C5B7050402CA8146F5
:10388000814725460347040093051400130707FDED
:103890006376E606F1F2834504000D461745000005
:1038A000130545A7392D11CD97470000938787A6AB
:1038B0001D8D93070004B397A700424505045D8D55
:1038C0002AC8834504001946174500001305C5A4FE
:1038D000130914002304B102ED233DC197C7FFFF74
:1038E0009387477295E74247B2471377071009CF8E
:1038F00091073EC69257D2973ED22DB5B387670344
:1039000085462E84BA97BDBF9D07E19BA107D5B719
:10391000780097060000938666D626860C084E85AA
:1039200097000000E7000000FD572A8AE314F5FC29
:1039300083D7C40093F70704E39C07EA125555BDEB
:10394000780097060000938666D326860C084E857D
:10395000012AD9BF797156CA9C49BA8A984522D49E
:1039600026D24ECE52CC06D64AD05AC85EC6AA89B6
:103970002E84B284368A63D3E700BA879CC003479B
:10398000340419C385079CC01C4093F7070281C704
:103990009C4089079CC00329040013796900631ABD
:1039A0000900130B9401FD5B5C449840998F634CB4
:1039B000F9041C408346340493F70702B336D00061
:1039C000A5EB13063404D2854E85829AFD57630316
:1039D000F5041C4011469840998B544481446397E8
:1039E000C700B384E64063D3040081441C441848F4
:1039F0006354F700998FBE94014969047D5B639815
:103A00002405014509A885465A86D2854E85829AA5
:103A1000631E75017D55B250225492540259F249E9
:103A2000624AD24A424BB24B456182800509ADBF22
:103A30003307D40013060003A301C704034754044B
:103A400093871600A2978906A381E7049DBF854648
:103A50002286D2854E85829AE30E65FB050945B71D
:103A6000797122D426D24AD04ECE06D652CC56CA2E
:103A70005AC8B68983C68501930790063289AA84FD
:103A80002E8413863504638DF60263E2D70693070E
:103A900080056388F61863EDD700638106229307DB
:103AA0003004638EF60A930A24042301D404C9A0C7
:103AB000930730066385F60A93074006E395F6FE02
:103AC0001C40084393F6070893054500C5C61C41F2
:103AD0000CC363D807001307D002B307F040A3015B
:103AE000E404974600009386A68329476DA89307B0
:103AF00000076384F61663E5D7029307E006638B3D
:103B0000F6189307F006E390F6FA0C401C4313F8FE
:103B10000508138547006307080608C39C438DA862
:103B200093075007E383F6FE93078007638BF61233
:103B300093073007E399F6F61C43D04181459386FD
:103B4000470014C383AA07005685A52E01C5330577
:103B5000554148C05C401CC8A301040471A81C4323
:103B6000930A2404938647009C4314C32301F4045E
:103B70008547D5B793F607041C410CC3B9DAC207D1
:103B8000C18781BF93F5050408C3C9D983D707004E
:103B90001307F0066388E60E973600009386467892
:103BA0002947A30104044C400CC463C50500084028
:103BB0006D9908C099E3B28A91CDB28AB3F5E70254
:103BC000FD1AB69583C505002380BA00B3D5E70278
:103BD00063F0E70CA147631EF7001C40858B91CB77
:103BE00058401C4863C7E70093070003A38FFAFE01
:103BF000FD1A3306564110C84E87CA867000A2854A
:103C00002685EFF03FD57D5A631E450B7D55B2509A
:103C1000225492540259F249624AD24A424B4561B7
:103C20008280A382D504973600009386666F0C408D
:103C3000084313F805081C411105630D080208C369
:103C400013F7150001C793E505020CC04147B1FB0E
:103C50000C4093F5F5FD0CC0A9B79C4193E7070212
:103C60009CC193078007A302F40497360000938653
:103C7000666C75BF13F8050408C3E30308FCC207AC
:103C8000C1837DBF9736000093868669214711BFA7
:103C9000AE872DB794411C43CC4913F80608138511
:103CA00047006306080008C39C438CC301A808C3EF
:103CB00093F606049C43F5DA2390B700232804000A
:103CC000B28A1DBF14485686CA8526858299E30F9D
:103CD00045F31C40898B8DE7B2474844E359F5F220
:103CE0003E8535B785465686CA8526858299E30F77
:103CF00065F1050A5C443247998FE345FAFEE9BF56
:103D0000014A930A94017D5BF5B7411122C42A84CC
:103D10002E8523A801BA06C6EFD06FA7FD576317FB
:103D2000F500938701BB9C4391C31CC0B240224461
:103D300041018280411122C42E848395E50006C68C
:103D4000E52C634905007C48AA977CC8B240224410
:103D5000410182808357C4007D777D17F98F231638
:103D6000F400EDB783D7C500011122CC26CA4AC89A
:103D70004EC606CE93F70710AA842E843289B689E0
:103D800091C78395E5008946014631228357C400D7
:103D90007D777D17F98F2316F4008315E4006244C4
:103DA000F240CE864A86B24942492685D244056110
:103DB0003DA8411122C42E848395E50006C6E12862
:103DC000FD570357C400631BF500FD77FD17F98FFE
:103DD0002316F400B2402244410182808567D98FC6
:103DE0002316F40068C8FDB78395E50005A84111C6
:103DF00022C42A842E85B285368623A801BA06C637
:103E0000EFD02F94FD576317F500938701BB9C43B8
:103E100091C31CC0B240224441018280411122C49E
:103E20002A842E8523A801BA06C6B924FD57631734
:103E3000F500938701BB9C4391C31CC0B240224450
:103E400041018280411122C42A842E85B28523A893
:103E500001BA06C6052CFD576317F500938701BB11
:103E60009C4391C31CC0B240224441018280411155
:103E700022C42A842E8523A801BA06C6112CFD5718
:103E80006317F500938701BB9C4391C31CC0B240EC
:103E9000224441018280411122C42A842E85B285A8
:103EA000368623A801BA06C6D52AFD576317F50042
:103EB000938701BB9C4391C31CC0B2402244410183
:103EC000828093F5F50F2A966314C5000145828020
:103ED00083470500E38DB7FE0505FDB7B3C7A50011
:103EE0008D8B3307C50081E78D4763EEC700AA8736
:103EF0006370E50A83C6050085078505A38FD7FE95
:103F0000E3EAE7FE828093763500AA8791CA83C6EA
:103F1000050085078505A38FD7FE93F63700FDB70B
:103F20009376C7FF138606FE63F0C70683A30500DA
:103F300083A2450083AF850003AFC50083AE0501B2
:103F400003AE450103A3850183A8C50193854502FE
:103F500023A0770003A8C5FF23A2570023A4F701DD
:103F600023A6E70123A8D70123AAC70123AC670032
:103F700023AE17019387470223AE07FF75B7904121
:103F80009107910523AEC7FEE3EBD7FEE3E4E7F626
:103F9000828063F3A504B386C500637FD502934591
:103FA000F6FF8147FD176393F50082803387F600A3
:103FB000034807003387C7002A9723000701DDB7AE
:103FC0003387F500834607003307F5008507230094
:103FD000D700E317F6FE82808147E5BF82808280AA
:103FE00081E5B2856FF02FA2011122CC06CE26CA40
:103FF0004AC84EC6328401EEEFF06F960149F24096
:1040000062444A85D2444249B24905618280AE8405
:10401000AA8989282689E37485FEA2854E85EFF05A
:104020008F9E2A8969DDA6852286EFF03FEBA68563
:104030004E85EFF0CF92E1B7411122C42A842E853C
:10404000B285368623A801BA06C6B928FD5763177C
:10405000F500938701BB9C4391C31CC0B24022442E
:104060004101828083A7C5FF1385C7FF63D5070081
:10407000AA959C413E9582809307800523A8F1BABA
:104080007D5582809307800523A8F1BA7D558280F3
:104090009307800523A8F1BA014582809307800524
:1040A00023A8F1BA7D5582809307800523A8F1BA31
:1040B0007D55828053797374656D436C6B3A2564CA
:1040C0000D0A00005761726E696E670D00000000F6
:1040D00080410000844100008C410000A8410000A4
:1040E00098410000A4410000B0410000BC41000024
:1040F000C8410000D4410000E0410000EC41000054
:10410000544100005441000054410000544100005B
:10411000F8410000044200005441000054410000F6
:10412000544100001042000054410000544100007E
:104130001C4200002C4200003842000048420000AF
:10414000544200005441000054410000604200000D
:104150006C42000052657475726E204661696C6C29
:10416000000000000D0A20536574207061726173B5
:10417000756363A3A10000000D0A25730000000011
:104180004F4B0000525457726F6E67004E6F666956
:104190006E67657200000000447279204661696CA8
:1041A00000000000576574204661696C0000000043
:1041B0004D617373204661696C000000536D616C42
:1041C0006C204661696C00004D6174636820466133
:1041D000696C0000536361726368204661696C001A
:1041E0004D65726765204661696C00004F757420EB
:1041F00052616E676500000044656C61746520461D
:1042000061696C00436C656172204661696C0000F5
:104210004E6F2050696374757265000052572046D6
:104220004C415348204661696C0000004F7468653A
:1042300072204661696C00005573656C657373206C
:104240004770696F000000004770696F2046616920
:104250006C00000050616765204661696C000000D9
:104260004C69622046756C6C000000004164647209
:10427000204661696C00000041646420465220536E
:1042800075636300416464204652204661696C0096
:10429000505720526967687400000000505720454D
:1042A00072726F7200000000465220526967687493
:1042B0000000000046522057726F6E670000000039
:1042C00046616365205269676874000046616365F2
:1042D0002057726F6E6700005761726E696E6700DB
:1042E00044000000450000004C4344206D616E75A1
:1042F0006661637475726572204944203D20307890
:1043000025782C200000000076657273696F6E209E
:104310004944203D20307825782C2000647269764D
:104320006572204944203D20307825780D0A000030
:104330005468657265206973206E6F20616E792004
:10434000646566696E6520415343325F31323038AF
:1043500020262620415343325F3234313220262634
:1043600020415343325F32343136202626204153D8
:1043700043325F33323136202100000025640000D3
:10438000666F6E742073697A6528256429206973C5
:10439000206E6F7420737570706F7274210000004E
:1043A000000000000000000000000000000000000D
:1043B000000000101010101010000010100000007D
:1043C000000000282828280000000000000000004D
:1043D0000000001212167F2424FE28484800000026
:1043E000000008083E4948683E0B09493E0808009D
:1043F000000000609090620C304609090600000041
:104400000000001C20203030494545623D0000007E
:10441000000000101010100000000000000000005C
:1044200000000C08081010101010100808040000FC
:1044300000003010100808080808081010300000AC
:1044400000000008493E1C6B08000000000000004E
:104450000000000000101010FE10101000000000FE
:1044600000000000000000000000001818102000EC
:104470000000000000000000003800000000000004
:1044800000000000000000000000001818000000FC
:10449000000000020404040808101020202040003E
:1044A0000000001C22414149414141221C00000002
:1044B0000000001828080808080808083E00000046
:1044C0000000003E43010102060C10207F000000A6
:1044D0000000003E4101031C030101433E000000B7
:1044E000000000060A1A1222427F020202000000A7
:1044F0000000007E40407C42010101423C0000007F
:104500000000001E3160405E634141231E00000038
:104510000000007F030204040808101020000000BF
:104520000000003E4141413E634141633E000000C6
:104530000000003C624141633D0103463C00000035
:10454000000000000000181800000018180000000B
:1045500000000000000018180000001818102000CB
:104560000000000000010E3840380E01000000007D
:104570000000000000007F00007F0000000000003D
:10458000000000000040380E010E3840000000001E
:104590000000003844040C18101000101000000037
:1045A0000000001E332147494949494720300E0089
:1045B0000000000814141414223E2241410000009F
:1045C0000000007E4141417E434141437E000000A6
:1045D0000000001E21404040404040211E000000DD
:1045E0000000007C42414141414141427C000000C9
:1045F0000000007F4040407F404040407F0000007E
:104600000000007F4040407F4040404040000000AC
:104610000000001E21404040434141211E00000097
:10462000000000414141417F4141414141000000C2
:104630000000007C10101010101010107C00000002
:104640000000001C040404040404044438000000B6
:104650000000004244485070784844464200000040
:104660000000004040404040404040407F0000008B
:104670000000006363555555494141414100000028
:104680000000006161515149494545434300000024
:104690000000001C22414141414141221C00000018
:1046A0000000007E434141437E4040404000000006
:1046B0000000001C22414141414141221E060200EE
:1046C0000000007E434141437C42414140000000E4
:1046D0000000001E614040300E0101433E0000001A
:1046E000000000FE1010101010101010100000003C
:1046F0000000004141414141414141633E00000011
:104700000000004141222222141414140800000069
:104710000000008181815A5A5A6666666600000070
:104720000000004122141408141422224100000049
:1047300000000082444428381010101010000000BF
:104740000000007F03020408081020607F000000C2
:1047500000001C101010101010101010101C000081
:10476000000000402020201010080804040402006B
:104770000000380808080808080808080838000079
:10478000000000102844C6000000000000000000E7
:10479000000000000000000000000000000000FF1A
:1047A00000301008000000000000000000000000C1
:1047B00000000000001C22023E4242463A00000077
:1047C00000004040407C6442424242645C00000081
:1047D00000000000001C2240404040221C0000005D
:1047E00000000202023E2642424242263A000000F7
:1047F00000000000003C26427E4040221C000000D9
:1048000000000C10107C1010101010101000000090
:1048100000000000003A2642424242263A02221C90
:1048200000004040405C624242424242420000007E
:104830000000101000701010101010107C0000000C
:104840000000080800380808080808080808087068
:104850000000404040444850704848444200000036
:104860000000701010101010101010100E0000003A
:1048700000000000007E49494949494949000000BB
:1048800000000000005C62424242424242000000DE
:1048900000000000003C6642424242663C000000CC
:1048A00000000000005C6442424242647C404040A0
:1048B00000000000003A2642424242263A0202022A
:1048C00000000000003C32202020202020000000BA
:1048D00000000000003C4240700E02423C0000001C
:1048E00000000010107E1010101010100E000000BC
:1048F0000000000000424242424242463A000000AC
:10490000000000000042422424241818180000006F
:10491000000000000081815A5A5A5A2424000000E5
:10492000000000000042241818182424420000004F
:104930000000000000422224241418180808103037
:1049400000000000007E0204081020407E000000ED
:1049500000000C10101010106010101010100C003F
:104960000000101010101010101010101010101067
:1049700000006010101010100C10101010106000CB
:104980000000000000000000000000000000000027
:104990000000000000000000000000000000000017
:1049A0000000000000000000000000000000000007
:1049B00000000000000000000600060006000600DF
:1049C00006000600060006000600060000000000C3
:1049D00006000600060000000000000000000000C5
:1049E0000000000000000000198019801980198063
:1049F0001980198000000000000000000000000085
:104A000000000000000000000000000000000000A6
:104A10000000000000000000066004400CC00CC054
:104A20007FF07FF0088019801980FFE0FFE03300FD
:104A300033002200220000000000000000000000FF
:104A4000000000000000020002000F801FC03A407A
:104A5000320032003A001F0007C002E0026002602C
:104A600022E03FC01F8002000200020000000000A0
:104A7000000000000000000078004800CC00CC00DE
:104A8000CC00484079C00E0073C00240066006604A
:104A90000660024003C000000000000000000000AB
:104AA00000000000000000000F801F8018001800A8
:104AB00018000C001E003630633063B061A060E067
:104AC00030C03F600E7000000000000000000000D9
:104AD00000000000000000000600060006000600BE
:104AE00006000600000000000000000000000000BA
:104AF00000000000000000000000000000000000B6
:104B00000000000000000100020002000600060094
:104B100004000C000C000C000C000C000C000C003D
:104B20000400060006000200020001000000000070
:104B30000000000000000800040004000600060059
:104B4000020003000300030003000300030003004E
:104B50000200060006000400040008000000000037
:104B60000000000000000000040004004440358004
:104B70000E000E00358044400400040000000000D8
:104B80000000000000000000000000000000000025
:104B90000000000000000000000000000600060009
:104BA0000600060006007FE07FE006000600060023
:104BB00006000600000000000000000000000000E9
:104BC00000000000000000000000000000000000E5
:104BD00000000000000000000000000000000000D5
:104BE00006000600060006000C000C000000000095
:104BF00000000000000000000000000000000000B5
:104C000000000000000000001F001F000000000066
:104C10000000000000000000000000000000000094
:104C20000000000000000000000000000000000084
:104C30000000000000000000000000000000000074
:104C40000600060006000000000000000000000052
:104C50000000000000000000006000C000C00180F3
:104C60000180030003000600060006000C000C0093
:104C70001800180030003000600000000000000044
:104C800000000000000000001E003F80318071C065
:104C900060C060C066C066C060C060C060C071C0F7
:104CA00031803F800E000000000000000000000086
:104CB000000000000000000007001F001B000300B0
:104CC00003000300030003000300030003000300CC
:104CD00003001FE01FE000000000000000000000D3
:104CE00000000000000000003F007F8041C000C0C5
:104CF00000C000C001C00180030006000C001800C5
:104D000030007FC07FC000000000000000000000F5
:104D100000000000000000003F007F8041C000C094
:104D200000C001C00F800F80018000C000C000C023
:104D300041C07F803F000000000000000000000034
:104D40000000000000000000038003800780058051
:104D50000D80098019803180318061807FE07FE0A3
:104D600001800180018000000000000000000000C0
:104D700000000000000000003F803F803000300055
:104D800030003F003F8021C000C000C000C000C014
:104D900041807F803E000000000000000000000015
:104DA00000000000000000000F001F80388030006D
:104DB000700060006F007F8071C060C060C060C024
:104DC00031C03F801F000000000000000000000014
:104DD00000000000000000007FC07FC00180018053
:104DE00001800300030003000600060006000C001B
:104DF0000C000C0018000000000000000000000083
:104E000000000000000000001F003F8071C060C073
:104E100060C031801F003F80318060C060C060C0D2
:104E200071C03F801F000000000000000000000073
:104E300000000000000000001F003F80718060C083
:104E400060C060C071C03FC01EC000C000C0018013
:104E500023803F001E000000000000000000000052
:104E60000000000000000000000000000000000042
:104E70000600060006000000000000000000000020
:104E80000600060006000000000000000000000010
:104E90000000000000000000000000000000000012
:104EA00006000600060000000000000000000000F0
:104EB00006000600060006000C000C0000000000C2
:104EC00000000000000000000000000000000020C2
:104ED00001E007801E00700070001E00078001E0E6
:104EE00000200000000000000000000000000000A2
:104EF00000000000000000000000000000000000B2
:104F0000000000007FE07FE0000000007FE07FE025
:104F10000000000000000000000000000000000091
:104F20000000000000000000000000000000400041
:104F300078001E00078000E000E007801E00780077
:104F40004000000000000000000000000000000021
:104F500000000000000000000F801FC01060006013
:104F600000E001C00380060006000600000000000B
:104F7000060006000600000000000000000000001F
:104F800000000000000000000000078018C0306032
:104F9000306023E0626066606660666066606660DE
:104FA000626033E0300018001C0007800000000041
:104FB0000000000000000000060006000F000F00C7
:104FC0000F001F801980198019803FC03FC030C07A
:104FD00030C0606060600000000000000000000061
:104FE00000000000000000007F007F8061C060C002
:104FF00060C061C07F807F8060C060606060606012
:1050000060E07FC07F800000000000000000000022
:10501000000000000000000007C01FE03820300042
:1050200060006000600060006000600060003000B0
:1050300038201FE007C00000000000000000000052
:1050400000000000000000007E007F8061C060C0A2
:10505000606060606060606060606060606060C0F0
:1050600061C07F807E0000000000000000000000A2
:1050700000000000000000007FE07FE060006000B2
:10508000600060007FE07FE0600060006000600022
:1050900060007FE07FE000000000000000000000F2
:1050A00000000000000000007FE07FE06000600082
:1050B000600060007FC07FC0600060006000600032
:1050C00060006000600000000000000000000000C0
:1050D00000000000000000000F801FC038403000BA
:1050E00060006000600061E061E06060606030600E
:1050F00038601FE00F80000000000000000000008A
:10510000000000000000000060606060606060609F
:10511000606060607FE07FE0606060606060606051
:10512000606060606060000000000000000000003F
:1051300000000000000000003FC03FC00600060065
:10514000060006000600060006000600060006002F
:1051500006003FC03FC0000000000000000000004B
:1051600000000000000000001F801F8001800180FF
:105170000180018001800180018001800180018027
:1051800043807F003E00000000000000000000009F
:105190000000000000000000606060C061806300EB
:1051A00066006C007C007E00760063006380618096
:1051B00060C060E0606000000000000000000000CF
:1051C000000000000000000060006000600060005F
:1051D00060006000600060006000600060006000CF
:1051E00060007FE07FE000000000000000000000A1
:1051F000000000000000000070E070E070E079E066
:10520000696069606F60666066606660606060606B
:10521000606060606060000000000000000000004E
:10522000000000000000000070607060786078602E
:105230006C606C606460666062606360636061E0C3
:1052400061E060E060E0000000000000000000009D
:1052500000000000000000000F003FC030C070E000
:10526000606060606060606060606060606070E0AE
:1052700030C03FC00F000000000000000000000030
:1052800000000000000000007F807FC060E06060E0
:105290006060606060E07FC07F80600060006000F0
:1052A00060006000600000000000000000000000DE
:1052B00000000000000000000F003FC030C070E0A0
:1052C000606060606060606060606060606070E04E
:1052D00030C01F800F00018000C00080000000006F
:1052E00000000000000000007F007FC060E0606000
:1052F0006060606060C07FC07F8061C060C06060CF
:1053000060606030603000000000000000000000BD
:1053100000000000000000001F803FC070406000DF
:10532000600070003E001F8001C0006000600060EF
:1053300040E07FC03F80000000000000000000004F
:105340000000000000000000FFF0FFF00600060073
:10535000060006000600060006000600060006001D
:10536000060006000600000000000000000000002B
:10537000000000000000000060606060606060602D
:10538000606060606060606060606060606060601D
:1053900070E03FC01F80000000000000000000001F
:1053A00000000000000000006060606030C030C09D
:1053B00030C030C01980198019801F800F000F0085
:1053C0000F000600060000000000000000000000C2
:1053D0000000000000000000C030C030C03060603D
:1053E000666066606F606F606960696039C039C00F
:1053F00039C030C030C000000000000000000000D4
:10540000000000000000000070E030C039C01980CA
:105410000F000F00060006000F000F001B80198010
:1054200031C030C060E0000000000000000000005B
:105430000000000000000000E070606030C030C07C
:1054400019801F800F0006000600060006000600F7
:10545000060006000600000000000000000000003A
:1054600000000000000000007FE07FE000C001C0FD
:1054700001800300070006000E000C001800380031
:1054800030007FE07FE0000000000000000000002E
:1054900000000000000007800780060006000600EC
:1054A00006000600060006000600060006000600CC
:1054B00006000600060006000780078000000000C6
:1054C0000000000000000000600030003000180004
:1054D00018000C000C000600060006000300030084
:1054E0000180018000C000C00060000000000000DA
:1054F0000000000000000F000F0003000300030085
:105500000300030003000300030003000300030083
:1055100003000300030003000F000F000000000061
:10552000000000000000000007000F800D8018C080
:10553000306060300000000000000000000000004B
:10554000000000000000000000000000000000005B
:10555000000000000000000000000000000000004B
:10556000000000000000000000000000000000003B
:10557000000000000000000000000000FFF0FFF04D
:105580000000000018000C000600030000000000EE
:10559000000000000000000000000000000000000B
:1055A00000000000000000000000000000000000FB
:1055B00000000000000000000000000000000000EB
:1055C0001F003F8021C000C01FC03FC070C060C02E
:1055D00061C07FC01CC0000000000000000000008F
:1055E00000000000000060006000600060006000DB
:1055F0006F007F80718060C060C060C060C060C0AC
:1056000071807F806F00000000000000000000003B
:10561000000000000000000000000000000000008A
:105620000F003F803080600060006000600060001C
:1056300030803F800F0000000000000000000000EC
:1056400000000000000000C000C000C000C000C09A
:105650001EC03FC031C060C060C060C060C060C0DC
:1056600031C03FC01EC0000000000000000000006C
:10567000000000000000000000000000000000002A
:105680000F003F8031C060C07FC07FC060006000FD
:1056900030403FC00F80000000000000000000000C
:1056A00000000000000001E003E006000600060024
:1056B0003FE03FE006000600060006000600060088
:1056C00006000600060000000000000000000000C8
:1056D00000000000000000000000000000000000CA
:1056E0001EC03FC031C060C060C060C060C060C04C
:1056F00031C03FC01EC000C021C03F801F0000005D
:1057000000000000000060006000600060006000B9
:1057100067007F8071C060C060C060C060C060C052
:1057200060C060C060C00000000000000000000019
:10573000000000000000060006000000000000005D
:105740003E003E00060006000600060006000600B9
:1057500006007FE07FE00000000000000000000085
:105760000000000000000300030000000000000033
:105770001F001F00030003000300030003000300D9
:10578000030003000300030003003E003C00000090
:105790000000000000006000600060006000600029
:1057A00061C0638067006E007C007C00760067004B
:1057B0006300618061C00000000000000000000084
:1057C000000000000000FC00FC000C000C000C00BD
:1057D0000C000C000C000C000C000C000C000C0069
:1057E0000E0007C003C00000000000000000000021
:1057F00000000000000000000000000000000000A9
:105800006DC07FE066606660666066606660666068
:105810006660666066600000000000000000000036
:105820000000000000000000000000000000000078
:1058300067007F8071C060C060C060C060C060C031
:1058400060C060C060C000000000000000000000F8
:105850000000000000000000000000000000000048
:105860001F003F80318060C060C060C060C060C009
:1058700031803F801F000000000000000000000099
:105880000000000000000000000000000000000018
:105890006F007F80718060C060C060C060C060C009
:1058A00071807F806F006000600060006000000019
:1058B00000000000000000000000000000000000E8
:1058C0001EC03FC031C060C060C060C060C060C06A
:1058D00031C03FC01EC000C000C000C000C00000FA
:1058E00000000000000000000000000000000000B8
:1058F0000CE00DF00F100E000C000C000C000C0062
:105900000C000C000C000000000000000000000073
:105910000000000000000000000000000000000087
:105920001F803FC0604060007F001F8001C000C03A
:1059300041C07F803F000000000000000000000028
:10594000000000000000000000000C000C000C0033
:105950007FC07FC00C000C000C000C000C000C0081
:105960000C000FC007C00000000000000000000095
:105970000000000000000000000000000000000027
:1059800060C060C060C060C060C060C060C060C017
:1059900071C03FC01CC000000000000000000000FB
:1059A00000000000000000000000000000000000F7
:1059B00060C071C0318031803B801B001B001B0028
:1059C0000E000E000E0000000000000000000000AD
:1059D00000000000000000000000000000000000C7
:1059E000C030C03060606660666066603FC039C0CD
:1059F00039C039C030C000000000000000000000C5
:105A00000000000000000000000000000000000096
:105A100071C031801B001F000E000E000E001F0021
:105A20001B00318071C00000000000000000000079
:105A30000000000000000000000000000000000066
:105A400060C03180318031801B001B001F000E00C0
:105A50000E0006000C000C000C003800380000009E
:105A60000000000000000000000000000000000036
:105A70007FC07FC00380030007000E001C001800D9
:105A800030007FC07FC00000000000000000000068
:105A900000000000000003C007C00600060006006A
:105AA0000600060006003C003C000E000600060052
:105AB000060006000600060007C003C00000000044
:105AC00000000000000006000600060006000600B8
:105AD0000600060006000600060006000600060096
